{
  "contractName": "FANTOKEN",
  "abi": [
    {
      "inputs": [
        {
          "internalType": "string",
          "name": "_name",
          "type": "string"
        },
        {
          "internalType": "string",
          "name": "_symbol",
          "type": "string"
        },
        {
          "internalType": "uint256",
          "name": "_decimals",
          "type": "uint256"
        },
        {
          "internalType": "uint256",
          "name": "_supply",
          "type": "uint256"
        },
        {
          "internalType": "address",
          "name": "TokenOwner",
          "type": "address"
        }
      ],
      "stateMutability": "nonpayable",
      "type": "constructor"
    },
    {
      "anonymous": false,
      "inputs": [
        {
          "indexed": true,
          "internalType": "address",
          "name": "TokenOwner",
          "type": "address"
        },
        {
          "indexed": true,
          "internalType": "address",
          "name": "spender",
          "type": "address"
        },
        {
          "indexed": false,
          "internalType": "uint256",
          "name": "tokens",
          "type": "uint256"
        }
      ],
      "name": "Approval",
      "type": "event"
    },
    {
      "anonymous": false,
      "inputs": [
        {
          "indexed": true,
          "internalType": "address",
          "name": "from",
          "type": "address"
        },
        {
          "indexed": true,
          "internalType": "address",
          "name": "to",
          "type": "address"
        },
        {
          "indexed": false,
          "internalType": "uint256",
          "name": "tokens",
          "type": "uint256"
        }
      ],
      "name": "Transfer",
      "type": "event"
    },
    {
      "inputs": [
        {
          "internalType": "address",
          "name": "",
          "type": "address"
        }
      ],
      "name": "balances",
      "outputs": [
        {
          "internalType": "uint256",
          "name": "",
          "type": "uint256"
        }
      ],
      "stateMutability": "view",
      "type": "function"
    },
    {
      "inputs": [],
      "name": "decimals",
      "outputs": [
        {
          "internalType": "uint256",
          "name": "",
          "type": "uint256"
        }
      ],
      "stateMutability": "view",
      "type": "function"
    },
    {
      "inputs": [],
      "name": "founder",
      "outputs": [
        {
          "internalType": "address",
          "name": "",
          "type": "address"
        }
      ],
      "stateMutability": "view",
      "type": "function"
    },
    {
      "inputs": [],
      "name": "name",
      "outputs": [
        {
          "internalType": "string",
          "name": "",
          "type": "string"
        }
      ],
      "stateMutability": "view",
      "type": "function"
    },
    {
      "inputs": [],
      "name": "supply",
      "outputs": [
        {
          "internalType": "uint256",
          "name": "",
          "type": "uint256"
        }
      ],
      "stateMutability": "view",
      "type": "function"
    },
    {
      "inputs": [],
      "name": "symbol",
      "outputs": [
        {
          "internalType": "string",
          "name": "",
          "type": "string"
        }
      ],
      "stateMutability": "view",
      "type": "function"
    },
    {
      "inputs": [
        {
          "internalType": "address",
          "name": "TokenOwner",
          "type": "address"
        },
        {
          "internalType": "address",
          "name": "spender",
          "type": "address"
        }
      ],
      "name": "allowance",
      "outputs": [
        {
          "internalType": "uint256",
          "name": "remaining",
          "type": "uint256"
        }
      ],
      "stateMutability": "view",
      "type": "function"
    },
    {
      "inputs": [
        {
          "internalType": "address",
          "name": "spender",
          "type": "address"
        },
        {
          "internalType": "uint256",
          "name": "tokens",
          "type": "uint256"
        }
      ],
      "name": "approve",
      "outputs": [
        {
          "internalType": "bool",
          "name": "success",
          "type": "bool"
        }
      ],
      "stateMutability": "nonpayable",
      "type": "function"
    },
    {
      "inputs": [
        {
          "internalType": "address",
          "name": "from",
          "type": "address"
        },
        {
          "internalType": "address",
          "name": "to",
          "type": "address"
        },
        {
          "internalType": "uint256",
          "name": "tokens",
          "type": "uint256"
        }
      ],
      "name": "transferFrom",
      "outputs": [
        {
          "internalType": "bool",
          "name": "success",
          "type": "bool"
        }
      ],
      "stateMutability": "nonpayable",
      "type": "function"
    },
    {
      "inputs": [],
      "name": "totalSupply",
      "outputs": [
        {
          "internalType": "uint256",
          "name": "",
          "type": "uint256"
        }
      ],
      "stateMutability": "view",
      "type": "function"
    },
    {
      "inputs": [
        {
          "internalType": "address",
          "name": "TokenOwner",
          "type": "address"
        }
      ],
      "name": "balanceOf",
      "outputs": [
        {
          "internalType": "uint256",
          "name": "balance",
          "type": "uint256"
        }
      ],
      "stateMutability": "view",
      "type": "function"
    },
    {
      "inputs": [
        {
          "internalType": "address",
          "name": "to",
          "type": "address"
        },
        {
          "internalType": "uint256",
          "name": "tokens",
          "type": "uint256"
        }
      ],
      "name": "transfer",
      "outputs": [
        {
          "internalType": "bool",
          "name": "success",
          "type": "bool"
        }
      ],
      "stateMutability": "nonpayable",
      "type": "function"
    }
  ],
  "bytecode": "0x60806040523480156200001157600080fd5b50604051620016b3380380620016b3833981810160405281019062000037919062000433565b84600090805190602001906200004f92919062000146565b5083600190805190602001906200006892919062000146565b508260028190555082600a6200007f91906200067c565b826200008c9190620006cd565b60038190555080600460006101000a81548173ffffffffffffffffffffffffffffffffffffffff021916908373ffffffffffffffffffffffffffffffffffffffff16021790555060035460056000600460009054906101000a900473ffffffffffffffffffffffffffffffffffffffff1673ffffffffffffffffffffffffffffffffffffffff1673ffffffffffffffffffffffffffffffffffffffff16815260200190815260200160002081905550505050505062000792565b82805462000154906200075d565b90600052602060002090601f016020900481019282620001785760008555620001c4565b82601f106200019357805160ff1916838001178555620001c4565b82800160010185558215620001c4579182015b82811115620001c3578251825591602001919060010190620001a6565b5b509050620001d39190620001d7565b5090565b5b80821115620001f2576000816000905550600101620001d8565b5090565b6000604051905090565b600080fd5b600080fd5b600080fd5b600080fd5b6000601f19601f8301169050919050565b7f4e487b7100000000000000000000000000000000000000000000000000000000600052604160045260246000fd5b6200025f8262000214565b810181811067ffffffffffffffff8211171562000281576200028062000225565b5b80604052505050565b600062000296620001f6565b9050620002a4828262000254565b919050565b600067ffffffffffffffff821115620002c757620002c662000225565b5b620002d28262000214565b9050602081019050919050565b60005b83811015620002ff578082015181840152602081019050620002e2565b838111156200030f576000848401525b50505050565b60006200032c6200032684620002a9565b6200028a565b9050828152602081018484840111156200034b576200034a6200020f565b5b62000358848285620002df565b509392505050565b600082601f8301126200037857620003776200020a565b5b81516200038a84826020860162000315565b91505092915050565b6000819050919050565b620003a88162000393565b8114620003b457600080fd5b50565b600081519050620003c8816200039d565b92915050565b600073ffffffffffffffffffffffffffffffffffffffff82169050919050565b6000620003fb82620003ce565b9050919050565b6200040d81620003ee565b81146200041957600080fd5b50565b6000815190506200042d8162000402565b92915050565b600080600080600060a0868803121562000452576200045162000200565b5b600086015167ffffffffffffffff81111562000473576200047262000205565b5b620004818882890162000360565b955050602086015167ffffffffffffffff811115620004a557620004a462000205565b5b620004b38882890162000360565b9450506040620004c688828901620003b7565b9350506060620004d988828901620003b7565b9250506080620004ec888289016200041c565b9150509295509295909350565b7f4e487b7100000000000000000000000000000000000000000000000000000000600052601160045260246000fd5b6000600282049050919050565b6000808291508390505b600185111562000587578086048111156200055f576200055e620004f9565b5b60018516156200056f5780820291505b80810290506200057f8562000528565b94506200053f565b94509492505050565b600082620005a2576001905062000675565b81620005b2576000905062000675565b8160018114620005cb5760028114620005d6576200060c565b600191505062000675565b60ff841115620005eb57620005ea620004f9565b5b8360020a915084821115620006055762000604620004f9565b5b5062000675565b5060208310610133831016604e8410600b8410161715620006465782820a90508381111562000640576200063f620004f9565b5b62000675565b62000655848484600162000535565b925090508184048111156200066f576200066e620004f9565b5b81810290505b9392505050565b6000620006898262000393565b9150620006968362000393565b9250620006c57fffffffffffffffffffffffffffffffffffffffffffffffffffffffffffffffff848462000590565b905092915050565b6000620006da8262000393565b9150620006e78362000393565b9250817fffffffffffffffffffffffffffffffffffffffffffffffffffffffffffffffff0483118215151615620007235762000722620004f9565b5b828202905092915050565b7f4e487b7100000000000000000000000000000000000000000000000000000000600052602260045260246000fd5b600060028204905060018216806200077657607f821691505b6020821081036200078c576200078b6200072e565b5b50919050565b610f1180620007a26000396000f3fe608060405234801561001057600080fd5b50600436106100d1576000357c010000000000000000000000000000000000000000000000000000000090048063313ce5671161008e578063313ce567146101c05780634d853ee5146101de57806370a08231146101fc57806395d89b411461022c578063a9059cbb1461024a578063dd62ed3e1461027a576100d1565b8063047fc9aa146100d657806306fdde03146100f4578063095ea7b31461011257806318160ddd1461014257806323b872dd1461016057806327e235e314610190575b600080fd5b6100de6102aa565b6040516100eb91906109b9565b60405180910390f35b6100fc6102b0565b6040516101099190610a6d565b60405180910390f35b61012c60048036038101906101279190610b1e565b61033e565b6040516101399190610b79565b60405180910390f35b61014a6104f5565b60405161015791906109b9565b60405180910390f35b61017a60048036038101906101759190610b94565b6104ff565b6040516101879190610b79565b60405180910390f35b6101aa60048036038101906101a59190610be7565b61069f565b6040516101b791906109b9565b60405180910390f35b6101c86106b7565b6040516101d591906109b9565b60405180910390f35b6101e66106bd565b6040516101f39190610c23565b60405180910390f35b61021660048036038101906102119190610be7565b6106e3565b60405161022391906109b9565b60405180910390f35b61023461072c565b6040516102419190610a6d565b60405180910390f35b610264600480360381019061025f9190610b1e565b6107ba565b6040516102719190610b79565b60405180910390f35b610294600480360381019061028f9190610c3e565b610919565b6040516102a191906109b9565b60405180910390f35b60035481565b600080546102bd90610cad565b80601f01602080910402602001604051908101604052809291908181526020018280546102e990610cad565b80156103365780601f1061030b57610100808354040283529160200191610336565b820191906000526020600020905b81548152906001019060200180831161031957829003601f168201915b505050505081565b600081600560003373ffffffffffffffffffffffffffffffffffffffff1673ffffffffffffffffffffffffffffffffffffffff1681526020019081526020016000205410156103c2576040517f08c379a00000000000000000000000000000000000000000000000000000000081526004016103b990610d2a565b60405180910390fd5b60008211610405576040517f08c379a00000000000000000000000000000000000000000000000000000000081526004016103fc90610d96565b60405180910390fd5b81600660003373ffffffffffffffffffffffffffffffffffffffff1673ffffffffffffffffffffffffffffffffffffffff16815260200190815260200160002060008573ffffffffffffffffffffffffffffffffffffffff1673ffffffffffffffffffffffffffffffffffffffff168152602001908152602001600020819055508273ffffffffffffffffffffffffffffffffffffffff163373ffffffffffffffffffffffffffffffffffffffff167f8c5be1e5ebec7d5bd14f71427d1e84f3dd0314c0f7b2291e5b200ac8c7c3b925846040516104e391906109b9565b60405180910390a36001905092915050565b6000600354905090565b600081600560008673ffffffffffffffffffffffffffffffffffffffff1673ffffffffffffffffffffffffffffffffffffffff168152602001908152602001600020541015610583576040517f08c379a000000000000000000000000000000000000000000000000000000000815260040161057a90610d2a565b60405180910390fd5b81600560008673ffffffffffffffffffffffffffffffffffffffff1673ffffffffffffffffffffffffffffffffffffffff16815260200190815260200160002060008282546105d29190610de5565b9250508190555081600560008573ffffffffffffffffffffffffffffffffffffffff1673ffffffffffffffffffffffffffffffffffffffff16815260200190815260200160002060008282546106289190610e19565b925050819055508273ffffffffffffffffffffffffffffffffffffffff168473ffffffffffffffffffffffffffffffffffffffff167fddf252ad1be2c89b69c2b068fc378daa952ba7f163c4a11628f55a4df523b3ef8460405161068c91906109b9565b60405180910390a3600190509392505050565b60056020528060005260406000206000915090505481565b60025481565b600460009054906101000a900473ffffffffffffffffffffffffffffffffffffffff1681565b6000600560008373ffffffffffffffffffffffffffffffffffffffff1673ffffffffffffffffffffffffffffffffffffffff168152602001908152602001600020549050919050565b6001805461073990610cad565b80601f016020809104026020016040519081016040528092919081815260200182805461076590610cad565b80156107b25780601f10610787576101008083540402835291602001916107b2565b820191906000526020600020905b81548152906001019060200180831161079557829003601f168201915b505050505081565b60008082116107fe576040517f08c379a00000000000000000000000000000000000000000000000000000000081526004016107f590610ebb565b60405180910390fd5b81600560008573ffffffffffffffffffffffffffffffffffffffff1673ffffffffffffffffffffffffffffffffffffffff168152602001908152602001600020600082825461084d9190610e19565b9250508190555081600560003373ffffffffffffffffffffffffffffffffffffffff1673ffffffffffffffffffffffffffffffffffffffff16815260200190815260200160002060008282546108a39190610de5565b925050819055508273ffffffffffffffffffffffffffffffffffffffff163373ffffffffffffffffffffffffffffffffffffffff167fddf252ad1be2c89b69c2b068fc378daa952ba7f163c4a11628f55a4df523b3ef8460405161090791906109b9565b60405180910390a36001905092915050565b6000600660008473ffffffffffffffffffffffffffffffffffffffff1673ffffffffffffffffffffffffffffffffffffffff16815260200190815260200160002060008373ffffffffffffffffffffffffffffffffffffffff1673ffffffffffffffffffffffffffffffffffffffff16815260200190815260200160002054905092915050565b6000819050919050565b6109b3816109a0565b82525050565b60006020820190506109ce60008301846109aa565b92915050565b600081519050919050565b600082825260208201905092915050565b60005b83811015610a0e5780820151818401526020810190506109f3565b83811115610a1d576000848401525b50505050565b6000601f19601f8301169050919050565b6000610a3f826109d4565b610a4981856109df565b9350610a598185602086016109f0565b610a6281610a23565b840191505092915050565b60006020820190508181036000830152610a878184610a34565b905092915050565b600080fd5b600073ffffffffffffffffffffffffffffffffffffffff82169050919050565b6000610abf82610a94565b9050919050565b610acf81610ab4565b8114610ada57600080fd5b50565b600081359050610aec81610ac6565b92915050565b610afb816109a0565b8114610b0657600080fd5b50565b600081359050610b1881610af2565b92915050565b60008060408385031215610b3557610b34610a8f565b5b6000610b4385828601610add565b9250506020610b5485828601610b09565b9150509250929050565b60008115159050919050565b610b7381610b5e565b82525050565b6000602082019050610b8e6000830184610b6a565b92915050565b600080600060608486031215610bad57610bac610a8f565b5b6000610bbb86828701610add565b9350506020610bcc86828701610add565b9250506040610bdd86828701610b09565b9150509250925092565b600060208284031215610bfd57610bfc610a8f565b5b6000610c0b84828501610add565b91505092915050565b610c1d81610ab4565b82525050565b6000602082019050610c386000830184610c14565b92915050565b60008060408385031215610c5557610c54610a8f565b5b6000610c6385828601610add565b9250506020610c7485828601610add565b9150509250929050565b7f4e487b7100000000000000000000000000000000000000000000000000000000600052602260045260246000fd5b60006002820490506001821680610cc557607f821691505b602082108103610cd857610cd7610c7e565b5b50919050565b7f4e6f7420656e6f7567682062616c616e63650000000000000000000000000000600082015250565b6000610d146012836109df565b9150610d1f82610cde565b602082019050919050565b60006020820190508181036000830152610d4381610d07565b9050919050565b7f546f6b656e73203c3d2030000000000000000000000000000000000000000000600082015250565b6000610d80600b836109df565b9150610d8b82610d4a565b602082019050919050565b60006020820190508181036000830152610daf81610d73565b9050919050565b7f4e487b7100000000000000000000000000000000000000000000000000000000600052601160045260246000fd5b6000610df0826109a0565b9150610dfb836109a0565b925082821015610e0e57610e0d610db6565b5b828203905092915050565b6000610e24826109a0565b9150610e2f836109a0565b9250827fffffffffffffffffffffffffffffffffffffffffffffffffffffffffffffffff03821115610e6457610e63610db6565b5b828201905092915050565b7f746f6b656e203c3d203020000000000000000000000000000000000000000000600082015250565b6000610ea5600b836109df565b9150610eb082610e6f565b602082019050919050565b60006020820190508181036000830152610ed481610e98565b905091905056fea26469706673582212204664aad89b7e65fbdf764b05b7ca9da83356de549f40c2f41c64e3576295fc0e64736f6c634300080d0033",
  "immutableReferences": {},
  "source": "pragma solidity 0.8.13;\r\n\r\n//SPDX-License-Identifier: MIT\r\n\r\ncontract FANTOKEN {\r\n    string public name;\r\n    string public symbol;\r\n    uint256 public decimals;\r\n\r\n    uint256 public supply;\r\n    address public founder;\r\n\r\n    mapping(address => uint256) public balances;\r\n    mapping(address => mapping(address => uint256)) allowed;\r\n\r\n    \r\n    event Transfer(address indexed from, address indexed to, uint256 tokens);\r\n    event Approval(\r\n        address indexed TokenOwner,\r\n        address indexed spender,\r\n        uint256 tokens\r\n    );\r\n    \r\n    constructor(string memory _name, string memory _symbol, uint256 _decimals, uint256 _supply, address TokenOwner) {\r\n        name = _name;\r\n        symbol = _symbol;\r\n        decimals = _decimals;\r\n        supply = _supply * 10**_decimals;\r\n        founder = TokenOwner;\r\n        balances[founder] = supply;\r\n    }\r\n\r\n    function allowance(address TokenOwner, address spender)\r\n        public\r\n        view\r\n        returns (uint256 remaining)\r\n    {\r\n        return allowed[TokenOwner][spender];\r\n\r\n        \r\n    }\r\n\r\n    function approve(address spender, uint256 tokens)\r\n        public\r\n        returns (bool success)\r\n    {\r\n        require(balances[msg.sender] >= tokens,\"Not enough balance\");\r\n        require(tokens > 0,\"Tokens <= 0\");\r\n        allowed[msg.sender][spender] = tokens;\r\n        emit Approval(msg.sender, spender, tokens);\r\n        return true;\r\n    }\r\n\r\n    function transferFrom(address from, address to, uint256 tokens)\r\n        public\r\n        returns (bool success)\r\n    {\r\n        require(balances[from] >= tokens,\"Not enough balance\");\r\n        balances[from] -= tokens;\r\n        balances[to] += tokens;\r\n        emit Transfer(from, to, tokens);\r\n        return true;\r\n    }\r\n\r\n    function totalSupply() public view returns (uint256) {\r\n        return supply;\r\n    }\r\n\r\n    function balanceOf(address TokenOwner)\r\n        public\r\n        view\r\n        returns (uint256 balance)\r\n    {\r\n        return balances[TokenOwner];\r\n    }\r\n\r\n    function transfer(address to, uint256 tokens)\r\n        public\r\n        returns (bool success)\r\n    {\r\n        require(tokens > 0, \"token <= 0 \");\r\n        balances[to] += tokens;\r\n        balances[msg.sender] -= tokens;\r\n        emit Transfer(msg.sender, to, tokens);\r\n        return true;\r\n    }\r\n}",
  "sourcePath": "B:\\Block Chain Development\\dApp 2\\dApp2-Final-Project\\contracts\\FANTOKEN.sol",
  "compiler": {
    "name": "solc",
    "version": "0.8.13+commit.abaa5c0e.Emscripten.clang"
  },
  "schemaVersion": "3.4.7",
  "updatedAt": "2022-04-19T23:28:13.261Z",
  "devdoc": {
    "kind": "dev",
    "methods": {},
    "version": 1
  },
  "userdoc": {
    "kind": "user",
    "methods": {},
    "version": 1
  }
}