{
  "contractName": "TokenGenerator",
  "abi": [
    {
      "inputs": [],
      "stateMutability": "nonpayable",
      "type": "constructor"
    },
    {
      "inputs": [
        {
          "internalType": "uint256",
          "name": "",
          "type": "uint256"
        }
      ],
      "name": "deployedTokensAddresses",
      "outputs": [
        {
          "internalType": "address",
          "name": "",
          "type": "address"
        }
      ],
      "stateMutability": "view",
      "type": "function",
      "constant": true
    },
    {
      "inputs": [
        {
          "internalType": "string",
          "name": "_name",
          "type": "string"
        },
        {
          "internalType": "string",
          "name": "_symbol",
          "type": "string"
        },
        {
          "internalType": "uint256",
          "name": "_decimals",
          "type": "uint256"
        },
        {
          "internalType": "uint256",
          "name": "_supply",
          "type": "uint256"
        },
        {
          "internalType": "address payable",
          "name": "TokenOwner",
          "type": "address"
        }
      ],
      "name": "generateToken",
      "outputs": [
        {
          "internalType": "address",
          "name": "",
          "type": "address"
        }
      ],
      "stateMutability": "nonpayable",
      "type": "function"
    },
    {
      "inputs": [],
      "name": "getAllAddresses",
      "outputs": [
        {
          "internalType": "address[]",
          "name": "",
          "type": "address[]"
        }
      ],
      "stateMutability": "view",
      "type": "function",
      "constant": true
    },
    {
      "inputs": [],
      "name": "addMoney",
      "outputs": [
        {
          "internalType": "string",
          "name": "",
          "type": "string"
        }
      ],
      "stateMutability": "payable",
      "type": "function",
      "payable": true
    },
    {
      "inputs": [],
      "name": "withdraw",
      "outputs": [],
      "stateMutability": "nonpayable",
      "type": "function"
    }
  ],
  "bytecode": "0x608060405234801561001057600080fd5b5033600260006101000a81548173ffffffffffffffffffffffffffffffffffffffff021916908373ffffffffffffffffffffffffffffffffffffffff160217905550611b0c806100616000396000f3fe608060405260043610610067576000357c0100000000000000000000000000000000000000000000000000000000900480631b3f48421461006c57806323f93c45146100ef5780633ccfd60b146102c257806355ab954a146102d95780639516a10414610354575b600080fd5b6100746103c0565b6040518080602001828103825283818151815260200191508051906020019080838360005b838110156100b4578082015181840152602081019050610099565b50505050905090810190601f1680156100e15780820380516001836020036101000a031916815260200191505b509250505060405180910390f35b3480156100fb57600080fd5b50610280600480360360a081101561011257600080fd5b810190808035906020019064010000000081111561012f57600080fd5b82018360208201111561014157600080fd5b8035906020019184600183028401116401000000008311171561016357600080fd5b91908080601f016020809104026020016040519081016040528093929190818152602001838380828437600081840152601f19601f820116905080830192505050505050509192919290803590602001906401000000008111156101c657600080fd5b8201836020820111156101d857600080fd5b803590602001918460018302840111640100000000831117156101fa57600080fd5b91908080601f016020809104026020016040519081016040528093929190818152602001838380828437600081840152601f19601f8201169050808301925050505050505091929192908035906020019092919080359060200190929190803573ffffffffffffffffffffffffffffffffffffffff1690602001909291905050506104c0565b604051808273ffffffffffffffffffffffffffffffffffffffff1673ffffffffffffffffffffffffffffffffffffffff16815260200191505060405180910390f35b3480156102ce57600080fd5b506102d7610819565b005b3480156102e557600080fd5b50610312600480360360208110156102fc57600080fd5b810190808035906020019092919050505061095e565b604051808273ffffffffffffffffffffffffffffffffffffffff1673ffffffffffffffffffffffffffffffffffffffff16815260200191505060405180910390f35b34801561036057600080fd5b5061036961099a565b6040518080602001828103825283818151815260200191508051906020019060200280838360005b838110156103ac578082015181840152602081019050610391565b505050509050019250505060405180910390f35b6060600260009054906101000a900473ffffffffffffffffffffffffffffffffffffffff1673ffffffffffffffffffffffffffffffffffffffff163373ffffffffffffffffffffffffffffffffffffffff1614610485576040517f08c379a00000000000000000000000000000000000000000000000000000000081526004018080602001828103825260168152602001807f4f6e6c79206f776e657220697320616c6c6f776564210000000000000000000081525060200191505060405180910390fd5b6040518060400160405280600581526020017f6164646564000000000000000000000000000000000000000000000000000000815250905090565b6000604051806020016040528060008152508051906020012086805190602001201415801561050c57506040518060200160405280600081525080519060200120858051906020012014155b8015610519575060008410155b80156105255750600083115b610597576040517f08c379a00000000000000000000000000000000000000000000000000000000081526004018080602001828103825260108152602001807f436865636b2074686520696e707574730000000000000000000000000000000081525060200191505060405180910390fd5b662386f26fc100003073ffffffffffffffffffffffffffffffffffffffff16311161060d576040517f08c379a0000000000000000000000000000000000000000000000000000000008152600401808060200182810382526025815260200180611ab26025913960400191505060405180910390fd5b6000868686868660405161062090610a28565b8080602001806020018681526020018581526020018473ffffffffffffffffffffffffffffffffffffffff1673ffffffffffffffffffffffffffffffffffffffff168152602001838103835288818151815260200191508051906020019080838360005b8381101561069f578082015181840152602081019050610684565b50505050905090810190601f1680156106cc5780820380516001836020036101000a031916815260200191505b50838103825287818151815260200191508051906020019080838360005b838110156107055780820151818401526020810190506106ea565b50505050905090810190601f1680156107325780820380516001836020036101000a031916815260200191505b50975050505050505050604051809103906000f080158015610758573d6000803e3d6000fd5b5090506000819080600181540180825580915050600190039060005260206000200160009091909190916101000a81548173ffffffffffffffffffffffffffffffffffffffff021916908373ffffffffffffffffffffffffffffffffffffffff1602179055508273ffffffffffffffffffffffffffffffffffffffff166108fc662386f26fc100009081150290604051600060405180830381858888f1935050505015801561080b573d6000803e3d6000fd5b508091505095945050505050565b600260009054906101000a900473ffffffffffffffffffffffffffffffffffffffff1673ffffffffffffffffffffffffffffffffffffffff163373ffffffffffffffffffffffffffffffffffffffff16146108dc576040517f08c379a00000000000000000000000000000000000000000000000000000000081526004018080602001828103825260168152602001807f4f6e6c79206f776e657220697320616c6c6f776564210000000000000000000081525060200191505060405180910390fd5b600260009054906101000a900473ffffffffffffffffffffffffffffffffffffffff1673ffffffffffffffffffffffffffffffffffffffff166108fc3073ffffffffffffffffffffffffffffffffffffffff16319081150290604051600060405180830381858888f1935050505015801561095b573d6000803e3d6000fd5b50565b6000818154811061096b57fe5b906000526020600020016000915054906101000a900473ffffffffffffffffffffffffffffffffffffffff1681565b60606000805480602002602001604051908101604052809291908181526020018280548015610a1e57602002820191906000526020600020905b8160009054906101000a900473ffffffffffffffffffffffffffffffffffffffff1673ffffffffffffffffffffffffffffffffffffffff16815260200190600101908083116109d4575b5050505050905090565b61107c80610a368339019056fe60806040523480156200001157600080fd5b506040516200107c3803806200107c833981810160405260a08110156200003757600080fd5b81019080805160405193929190846401000000008211156200005857600080fd5b838201915060208201858111156200006f57600080fd5b82518660018202830111640100000000821117156200008d57600080fd5b8083526020830192505050908051906020019080838360005b83811015620000c3578082015181840152602081019050620000a6565b50505050905090810190601f168015620000f15780820380516001836020036101000a031916815260200191505b50604052602001805160405193929190846401000000008211156200011557600080fd5b838201915060208201858111156200012c57600080fd5b82518660018202830111640100000000821117156200014a57600080fd5b8083526020830192505050908051906020019080838360005b838110156200018057808201518184015260208101905062000163565b50505050905090810190601f168015620001ae5780820380516001836020036101000a031916815260200191505b506040526020018051906020019092919080519060200190929190805190602001909291905050508460009080519060200190620001ee929190620002cf565b50836001908051906020019062000207929190620002cf565b508260028190555082600a0a820260038190555080600460006101000a81548173ffffffffffffffffffffffffffffffffffffffff021916908373ffffffffffffffffffffffffffffffffffffffff16021790555060035460056000600460009054906101000a900473ffffffffffffffffffffffffffffffffffffffff1673ffffffffffffffffffffffffffffffffffffffff1673ffffffffffffffffffffffffffffffffffffffff1681526020019081526020016000208190555050505050506200037e565b828054600181600116156101000203166002900490600052602060002090601f016020900481019282601f106200031257805160ff191683800117855562000343565b8280016001018555821562000343579182015b828111156200034257825182559160200191906001019062000325565b5b50905062000352919062000356565b5090565b6200037b91905b80821115620003775760008160009055506001016200035d565b5090565b90565b610cee806200038e6000396000f3fe608060405234801561001057600080fd5b50600436106100d1576000357c010000000000000000000000000000000000000000000000000000000090048063313ce5671161008e578063313ce567146102d95780634d853ee5146102f757806370a082311461034157806395d89b4114610399578063a9059cbb1461041c578063dd62ed3e14610482576100d1565b8063047fc9aa146100d657806306fdde03146100f4578063095ea7b31461017757806318160ddd146101dd57806323b872dd146101fb57806327e235e314610281575b600080fd5b6100de6104fa565b6040518082815260200191505060405180910390f35b6100fc610500565b6040518080602001828103825283818151815260200191508051906020019080838360005b8381101561013c578082015181840152602081019050610121565b50505050905090810190601f1680156101695780820380516001836020036101000a031916815260200191505b509250505060405180910390f35b6101c36004803603604081101561018d57600080fd5b81019080803573ffffffffffffffffffffffffffffffffffffffff1690602001909291908035906020019092919050505061059e565b604051808215151515815260200191505060405180910390f35b6101e56107bb565b6040518082815260200191505060405180910390f35b6102676004803603606081101561021157600080fd5b81019080803573ffffffffffffffffffffffffffffffffffffffff169060200190929190803573ffffffffffffffffffffffffffffffffffffffff169060200190929190803590602001909291905050506107c5565b604051808215151515815260200191505060405180910390f35b6102c36004803603602081101561029757600080fd5b81019080803573ffffffffffffffffffffffffffffffffffffffff169060200190929190505050610986565b6040518082815260200191505060405180910390f35b6102e161099e565b6040518082815260200191505060405180910390f35b6102ff6109a4565b604051808273ffffffffffffffffffffffffffffffffffffffff1673ffffffffffffffffffffffffffffffffffffffff16815260200191505060405180910390f35b6103836004803603602081101561035757600080fd5b81019080803573ffffffffffffffffffffffffffffffffffffffff1690602001909291905050506109ca565b6040518082815260200191505060405180910390f35b6103a1610a13565b6040518080602001828103825283818151815260200191508051906020019080838360005b838110156103e15780820151818401526020810190506103c6565b50505050905090810190601f16801561040e5780820380516001836020036101000a031916815260200191505b509250505060405180910390f35b6104686004803603604081101561043257600080fd5b81019080803573ffffffffffffffffffffffffffffffffffffffff16906020019092919080359060200190929190505050610ab1565b604051808215151515815260200191505060405180910390f35b6104e46004803603604081101561049857600080fd5b81019080803573ffffffffffffffffffffffffffffffffffffffff169060200190929190803573ffffffffffffffffffffffffffffffffffffffff169060200190929190505050610c31565b6040518082815260200191505060405180910390f35b60035481565b60008054600181600116156101000203166002900480601f0160208091040260200160405190810160405280929190818152602001828054600181600116156101000203166002900480156105965780601f1061056b57610100808354040283529160200191610596565b820191906000526020600020905b81548152906001019060200180831161057957829003601f168201915b505050505081565b600081600560003373ffffffffffffffffffffffffffffffffffffffff1673ffffffffffffffffffffffffffffffffffffffff168152602001908152602001600020541015610655576040517f08c379a00000000000000000000000000000000000000000000000000000000081526004018080602001828103825260128152602001807f4e6f7420656e6f7567682062616c616e6365000000000000000000000000000081525060200191505060405180910390fd5b600082116106cb576040517f08c379a000000000000000000000000000000000000000000000000000000000815260040180806020018281038252600b8152602001807f546f6b656e73203c3d203000000000000000000000000000000000000000000081525060200191505060405180910390fd5b81600660003373ffffffffffffffffffffffffffffffffffffffff1673ffffffffffffffffffffffffffffffffffffffff16815260200190815260200160002060008573ffffffffffffffffffffffffffffffffffffffff1673ffffffffffffffffffffffffffffffffffffffff168152602001908152602001600020819055508273ffffffffffffffffffffffffffffffffffffffff163373ffffffffffffffffffffffffffffffffffffffff167f8c5be1e5ebec7d5bd14f71427d1e84f3dd0314c0f7b2291e5b200ac8c7c3b925846040518082815260200191505060405180910390a36001905092915050565b6000600354905090565b600081600560008673ffffffffffffffffffffffffffffffffffffffff1673ffffffffffffffffffffffffffffffffffffffff16815260200190815260200160002054101561087c576040517f08c379a00000000000000000000000000000000000000000000000000000000081526004018080602001828103825260128152602001807f4e6f7420656e6f7567682062616c616e6365000000000000000000000000000081525060200191505060405180910390fd5b81600560008673ffffffffffffffffffffffffffffffffffffffff1673ffffffffffffffffffffffffffffffffffffffff1681526020019081526020016000206000828254039250508190555081600560008573ffffffffffffffffffffffffffffffffffffffff1673ffffffffffffffffffffffffffffffffffffffff168152602001908152602001600020600082825401925050819055508273ffffffffffffffffffffffffffffffffffffffff168473ffffffffffffffffffffffffffffffffffffffff167fddf252ad1be2c89b69c2b068fc378daa952ba7f163c4a11628f55a4df523b3ef846040518082815260200191505060405180910390a3600190509392505050565b60056020528060005260406000206000915090505481565b60025481565b600460009054906101000a900473ffffffffffffffffffffffffffffffffffffffff1681565b6000600560008373ffffffffffffffffffffffffffffffffffffffff1673ffffffffffffffffffffffffffffffffffffffff168152602001908152602001600020549050919050565b60018054600181600116156101000203166002900480601f016020809104026020016040519081016040528092919081815260200182805460018160011615610100020316600290048015610aa95780601f10610a7e57610100808354040283529160200191610aa9565b820191906000526020600020905b815481529060010190602001808311610a8c57829003601f168201915b505050505081565b6000808211610b28576040517f08c379a000000000000000000000000000000000000000000000000000000000815260040180806020018281038252600b8152602001807f746f6b656e203c3d20302000000000000000000000000000000000000000000081525060200191505060405180910390fd5b81600560008573ffffffffffffffffffffffffffffffffffffffff1673ffffffffffffffffffffffffffffffffffffffff1681526020019081526020016000206000828254019250508190555081600560003373ffffffffffffffffffffffffffffffffffffffff1673ffffffffffffffffffffffffffffffffffffffff168152602001908152602001600020600082825403925050819055508273ffffffffffffffffffffffffffffffffffffffff163373ffffffffffffffffffffffffffffffffffffffff167fddf252ad1be2c89b69c2b068fc378daa952ba7f163c4a11628f55a4df523b3ef846040518082815260200191505060405180910390a36001905092915050565b6000600660008473ffffffffffffffffffffffffffffffffffffffff1673ffffffffffffffffffffffffffffffffffffffff16815260200190815260200160002060008373ffffffffffffffffffffffffffffffffffffffff1673ffffffffffffffffffffffffffffffffffffffff1681526020019081526020016000205490509291505056fea26469706673582212209f6dc49929df71bb5abc73e58a3b61f9f4b2bfc008414dcd970210614d63d6a464736f6c634300060a00334e6f7420656e6f7567682062616c616e636520696e20706172656e7420636f6e7472616374a264697066735822122059c9cbb648fb86d30b8a35c161af20f7e5d10871ff4814695ddbcf3ddff1079d64736f6c634300060a0033",
  "immutableReferences": {},
  "source": "//SPDX-License-Identifier: MIT\r\n\r\npragma solidity 0.6.10;\r\n\r\nimport \"./FANTOKEN.sol\";\r\n\r\ncontract TokenGenerator {\r\n    \r\n    address[] public deployedTokensAddresses;\r\n    address payable TokenOwner;\r\n    address payable owner;\r\n    \r\n    constructor() public {\r\n        owner = payable(msg.sender);\r\n    }\r\n    \r\n    function generateToken(string memory _name, string memory _symbol, uint256 _decimals, uint256 _supply, address payable TokenOwner ) public returns(address) {\r\n        require(keccak256(bytes(_name)) != keccak256(bytes(\"\")) && keccak256(bytes(_symbol))!=keccak256(bytes(\"\")) && _decimals>=0 && _supply > 0,\"Check the inputs\");\r\n        require(address(this).balance > 0.01 ether,\"Not enough balance in parent contract\");\r\n        address newToken = address (new FANTOKEN(_name,_symbol,_decimals, _supply, TokenOwner));\r\n        deployedTokensAddresses.push(newToken);\r\n        TokenOwner.transfer(0.01 ether);\r\n        return (newToken);\r\n    }\r\n\r\n    function getAllAddresses() public view returns (address[] memory){\r\n        return deployedTokensAddresses;\r\n    }\r\n\r\n    function addMoney() public payable returns(string memory) {\r\n        require(msg.sender == owner, \"Only owner is allowed!\");\r\n        return 'added';\r\n    }\r\n    function withdraw() public {\r\n        require(msg.sender == owner, \"Only owner is allowed!\");\r\n        owner.transfer(address(this).balance);\r\n    }\r\n}",
  "sourcePath": "B:\\Block Chain Development\\dApp 2\\dApp2-Final-Project\\contracts\\TokenGenerator.sol",
  "compiler": {
    "name": "solc",
    "version": "0.6.10+commit.00c0fcaf.Emscripten.clang"
  },
  "schemaVersion": "3.4.7",
  "updatedAt": "2022-04-08T20:47:47.000Z",
  "networkType": "ethereum",
  "devdoc": {
    "methods": {}
  },
  "userdoc": {
    "methods": {}
  }
}