{
  "contractName": "TokenTrade",
  "abi": [
    {
      "inputs": [
        {
          "internalType": "uint256",
          "name": "_initialSupply",
          "type": "uint256"
        }
      ],
      "stateMutability": "nonpayable",
      "type": "constructor"
    },
    {
      "anonymous": false,
      "inputs": [
        {
          "indexed": false,
          "internalType": "address",
          "name": "from",
          "type": "address"
        },
        {
          "indexed": false,
          "internalType": "address",
          "name": "to",
          "type": "address"
        },
        {
          "indexed": false,
          "internalType": "uint256",
          "name": "amount",
          "type": "uint256"
        }
      ],
      "name": "Transfer",
      "type": "event"
    },
    {
      "inputs": [
        {
          "internalType": "address",
          "name": "",
          "type": "address"
        }
      ],
      "name": "balanceOf",
      "outputs": [
        {
          "internalType": "uint256",
          "name": "",
          "type": "uint256"
        }
      ],
      "stateMutability": "view",
      "type": "function"
    },
    {
      "inputs": [],
      "name": "initialSupply",
      "outputs": [
        {
          "internalType": "uint256",
          "name": "",
          "type": "uint256"
        }
      ],
      "stateMutability": "view",
      "type": "function"
    },
    {
      "inputs": [],
      "name": "tokenTransfered",
      "outputs": [
        {
          "internalType": "uint256",
          "name": "",
          "type": "uint256"
        }
      ],
      "stateMutability": "view",
      "type": "function"
    },
    {
      "inputs": [
        {
          "internalType": "address",
          "name": "_to",
          "type": "address"
        },
        {
          "internalType": "uint256",
          "name": "_amount",
          "type": "uint256"
        }
      ],
      "name": "transfer",
      "outputs": [
        {
          "internalType": "bool",
          "name": "",
          "type": "bool"
        }
      ],
      "stateMutability": "nonpayable",
      "type": "function"
    }
  ],
  "bytecode": "0x608060405234801561001057600080fd5b5060405161061b38038061061b833981810160405281019061003291906100be565b80600260003373ffffffffffffffffffffffffffffffffffffffff1673ffffffffffffffffffffffffffffffffffffffff1681526020019081526020016000208190555080600081905550506100eb565b600080fd5b6000819050919050565b61009b81610088565b81146100a657600080fd5b50565b6000815190506100b881610092565b92915050565b6000602082840312156100d4576100d3610083565b5b60006100e2848285016100a9565b91505092915050565b610521806100fa6000396000f3fe608060405234801561001057600080fd5b5060043610610069576000357c010000000000000000000000000000000000000000000000000000000090048063378dc3dc1461006e57806370a082311461008c578063a9059cbb146100bc578063d1a2cef8146100ec575b600080fd5b61007661010a565b604051610083919061029f565b60405180910390f35b6100a660048036038101906100a1919061031d565b610110565b6040516100b3919061029f565b60405180910390f35b6100d660048036038101906100d19190610376565b610128565b6040516100e391906103d1565b60405180910390f35b6100f4610280565b604051610101919061029f565b60405180910390f35b60005481565b60026020528060005260406000206000915090505481565b600081600260003373ffffffffffffffffffffffffffffffffffffffff1673ffffffffffffffffffffffffffffffffffffffff16815260200190815260200160002054101561017657600080fd5b81600260003373ffffffffffffffffffffffffffffffffffffffff1673ffffffffffffffffffffffffffffffffffffffff16815260200190815260200160002060008282546101c5919061041b565b9250508190555081600260008573ffffffffffffffffffffffffffffffffffffffff1673ffffffffffffffffffffffffffffffffffffffff168152602001908152602001600020600082825461021b919061044f565b925050819055508160016000828254610234919061044f565b925050819055507fddf252ad1be2c89b69c2b068fc378daa952ba7f163c4a11628f55a4df523b3ef33848460405161026e939291906104b4565b60405180910390a16001905092915050565b60015481565b6000819050919050565b61029981610286565b82525050565b60006020820190506102b46000830184610290565b92915050565b600080fd5b600073ffffffffffffffffffffffffffffffffffffffff82169050919050565b60006102ea826102bf565b9050919050565b6102fa816102df565b811461030557600080fd5b50565b600081359050610317816102f1565b92915050565b600060208284031215610333576103326102ba565b5b600061034184828501610308565b91505092915050565b61035381610286565b811461035e57600080fd5b50565b6000813590506103708161034a565b92915050565b6000806040838503121561038d5761038c6102ba565b5b600061039b85828601610308565b92505060206103ac85828601610361565b9150509250929050565b60008115159050919050565b6103cb816103b6565b82525050565b60006020820190506103e660008301846103c2565b92915050565b7f4e487b7100000000000000000000000000000000000000000000000000000000600052601160045260246000fd5b600061042682610286565b915061043183610286565b925082821015610444576104436103ec565b5b828203905092915050565b600061045a82610286565b915061046583610286565b9250827fffffffffffffffffffffffffffffffffffffffffffffffffffffffffffffffff0382111561049a576104996103ec565b5b828201905092915050565b6104ae816102df565b82525050565b60006060820190506104c960008301866104a5565b6104d660208301856104a5565b6104e36040830184610290565b94935050505056fea264697066735822122069a0d81b0d7f24339a6c5f6cd59474ed3f708f572f450b6e496af36fd9ee185c64736f6c634300080d0033",
  "immutableReferences": {},
  "source": "//SPDX-License-Identifier: MIT\r\n\r\n\r\npragma solidity 0.8.13;\r\n\r\n\r\ncontract TokenTrade {\r\n\r\nuint public initialSupply;\r\n//Tracking the count of total tokens transferred\r\nuint public tokenTransfered;\r\n//Mapping the tracks the balance of tokens for each account\r\nmapping(address => uint) public balanceOf;\r\n\r\nconstructor(uint _initialSupply) {\r\nbalanceOf[msg.sender] = _initialSupply;\r\ninitialSupply = _initialSupply;\r\n}\r\n\r\n//Event Transfer to notify everyone on the network\r\nevent Transfer (\r\n    address from,\r\n    address to,\r\n    uint amount\r\n);\r\n\r\n\r\n//Transfer Function\r\nfunction transfer(address _to, uint _amount) public returns (bool){\r\nrequire(balanceOf[msg.sender] >= _amount);\r\nbalanceOf[msg.sender] -= _amount;\r\nbalanceOf[_to] += _amount;\r\ntokenTransfered += _amount;\r\nemit Transfer(msg.sender, _to, _amount);\r\nreturn true;\r\n}\r\n}",
  "sourcePath": "B:\\Block Chain Development\\dApp 2\\dApp2-Final-Project\\contracts\\TokenTrade.sol",
  "compiler": {
    "name": "solc",
    "version": "0.8.13+commit.abaa5c0e.Emscripten.clang"
  },
  "schemaVersion": "3.4.7",
  "updatedAt": "2022-04-19T23:01:39.568Z",
  "devdoc": {
    "kind": "dev",
    "methods": {},
    "version": 1
  },
  "userdoc": {
    "kind": "user",
    "methods": {},
    "version": 1
  }
}