{
  "contractName": "TokenGenerator",
  "abi": [
    {
      "inputs": [],
      "stateMutability": "nonpayable",
      "type": "constructor"
    },
    {
      "inputs": [
        {
          "internalType": "uint256",
          "name": "",
          "type": "uint256"
        }
      ],
      "name": "deployedTokensAddresses",
      "outputs": [
        {
          "internalType": "address",
          "name": "",
          "type": "address"
        }
      ],
      "stateMutability": "view",
      "type": "function",
      "constant": true
    },
    {
      "inputs": [
        {
          "internalType": "string",
          "name": "_name",
          "type": "string"
        },
        {
          "internalType": "string",
          "name": "_symbol",
          "type": "string"
        },
        {
          "internalType": "uint256",
          "name": "_decimals",
          "type": "uint256"
        },
        {
          "internalType": "uint256",
          "name": "_supply",
          "type": "uint256"
        },
        {
          "internalType": "address payable",
          "name": "tokenOwner",
          "type": "address"
        }
      ],
      "name": "generateToken",
      "outputs": [
        {
          "internalType": "address payable",
          "name": "",
          "type": "address"
        }
      ],
      "stateMutability": "nonpayable",
      "type": "function"
    },
    {
      "inputs": [],
      "name": "getAllAddresses",
      "outputs": [
        {
          "internalType": "address[]",
          "name": "",
          "type": "address[]"
        }
      ],
      "stateMutability": "view",
      "type": "function",
      "constant": true
    },
    {
      "inputs": [],
      "name": "addMoney",
      "outputs": [
        {
          "internalType": "string",
          "name": "",
          "type": "string"
        }
      ],
      "stateMutability": "payable",
      "type": "function",
      "payable": true
    },
    {
      "inputs": [],
      "name": "withdraw",
      "outputs": [],
      "stateMutability": "nonpayable",
      "type": "function"
    }
  ],
  "bytecode": "0x608060405234801561001057600080fd5b5033600160006101000a81548173ffffffffffffffffffffffffffffffffffffffff021916908373ffffffffffffffffffffffffffffffffffffffff1602179055506124ae806100616000396000f3fe6080604052600436106200006d576000357c0100000000000000000000000000000000000000000000000000000000900480631b3f4842146200007257806323f93c4514620000945780633ccfd60b14620000d857806355ab954a14620000f25780639516a1041462000136575b600080fd5b6200007c62000166565b6040516200008b9190620006df565b60405180910390f35b348015620000a157600080fd5b50620000c06004803603810190620000ba919062000908565b62000236565b604051620000cf9190620009df565b60405180910390f35b348015620000e557600080fd5b50620000f062000447565b005b348015620000ff57600080fd5b506200011e6004803603810190620001189190620009fc565b6200055d565b6040516200012d919062000a53565b60405180910390f35b3480156200014357600080fd5b506200014e6200059d565b6040516200015d919062000b3e565b60405180910390f35b6060600160009054906101000a900473ffffffffffffffffffffffffffffffffffffffff1673ffffffffffffffffffffffffffffffffffffffff163373ffffffffffffffffffffffffffffffffffffffff1614620001fb576040517f08c379a0000000000000000000000000000000000000000000000000000000008152600401620001f29062000bb2565b60405180910390fd5b6040518060400160405280600581526020017f6164646564000000000000000000000000000000000000000000000000000000815250905090565b600060405180602001604052806000815250805190602001208680519060200120141580156200028357506040518060200160405280600081525080519060200120858051906020012014155b801562000291575060008410155b80156200029e5750600083115b620002e0576040517f08c379a0000000000000000000000000000000000000000000000000000000008152600401620002d79062000c24565b60405180910390fd5b662386f26fc100003073ffffffffffffffffffffffffffffffffffffffff16311162000343576040517f08c379a00000000000000000000000000000000000000000000000000000000081526004016200033a9062000cbc565b60405180910390fd5b6000868686868660405162000358906200062d565b6200036895949392919062000d5a565b604051809103906000f08015801562000385573d6000803e3d6000fd5b5090506000819080600181540180825580915050600190039060005260206000200160009091909190916101000a81548173ffffffffffffffffffffffffffffffffffffffff021916908373ffffffffffffffffffffffffffffffffffffffff1602179055508273ffffffffffffffffffffffffffffffffffffffff166108fc662386f26fc100009081150290604051600060405180830381858888f1935050505015801562000439573d6000803e3d6000fd5b508091505095945050505050565b600160009054906101000a900473ffffffffffffffffffffffffffffffffffffffff1673ffffffffffffffffffffffffffffffffffffffff163373ffffffffffffffffffffffffffffffffffffffff1614620004da576040517f08c379a0000000000000000000000000000000000000000000000000000000008152600401620004d19062000bb2565b60405180910390fd5b600160009054906101000a900473ffffffffffffffffffffffffffffffffffffffff1673ffffffffffffffffffffffffffffffffffffffff166108fc3073ffffffffffffffffffffffffffffffffffffffff16319081150290604051600060405180830381858888f193505050501580156200055a573d6000803e3d6000fd5b50565b600081815481106200056e57600080fd5b906000526020600020016000915054906101000a900473ffffffffffffffffffffffffffffffffffffffff1681565b606060008054806020026020016040519081016040528092919081815260200182805480156200062357602002820191906000526020600020905b8160009054906101000a900473ffffffffffffffffffffffffffffffffffffffff1673ffffffffffffffffffffffffffffffffffffffff1681526020019060010190808311620005d8575b5050505050905090565b6116b38062000dc683390190565b600081519050919050565b600082825260208201905092915050565b60005b83811015620006775780820151818401526020810190506200065a565b8381111562000687576000848401525b50505050565b6000601f19601f8301169050919050565b6000620006ab826200063b565b620006b7818562000646565b9350620006c981856020860162000657565b620006d4816200068d565b840191505092915050565b60006020820190508181036000830152620006fb81846200069e565b905092915050565b6000604051905090565b600080fd5b600080fd5b600080fd5b600080fd5b7f4e487b7100000000000000000000000000000000000000000000000000000000600052604160045260246000fd5b6200075b826200068d565b810181811067ffffffffffffffff821117156200077d576200077c62000721565b5b80604052505050565b60006200079262000703565b9050620007a0828262000750565b919050565b600067ffffffffffffffff821115620007c357620007c262000721565b5b620007ce826200068d565b9050602081019050919050565b82818337600083830152505050565b600062000801620007fb84620007a5565b62000786565b90508281526020810184848401111562000820576200081f6200071c565b5b6200082d848285620007db565b509392505050565b600082601f8301126200084d576200084c62000717565b5b81356200085f848260208601620007ea565b91505092915050565b6000819050919050565b6200087d8162000868565b81146200088957600080fd5b50565b6000813590506200089d8162000872565b92915050565b600073ffffffffffffffffffffffffffffffffffffffff82169050919050565b6000620008d082620008a3565b9050919050565b620008e281620008c3565b8114620008ee57600080fd5b50565b6000813590506200090281620008d7565b92915050565b600080600080600060a086880312156200092757620009266200070d565b5b600086013567ffffffffffffffff81111562000948576200094762000712565b5b620009568882890162000835565b955050602086013567ffffffffffffffff8111156200097a576200097962000712565b5b620009888882890162000835565b94505060406200099b888289016200088c565b9350506060620009ae888289016200088c565b9250506080620009c188828901620008f1565b9150509295509295909350565b620009d981620008c3565b82525050565b6000602082019050620009f66000830184620009ce565b92915050565b60006020828403121562000a155762000a146200070d565b5b600062000a25848285016200088c565b91505092915050565b600062000a3b82620008a3565b9050919050565b62000a4d8162000a2e565b82525050565b600060208201905062000a6a600083018462000a42565b92915050565b600081519050919050565b600082825260208201905092915050565b6000819050602082019050919050565b62000aa78162000a2e565b82525050565b600062000abb838362000a9c565b60208301905092915050565b6000602082019050919050565b600062000ae18262000a70565b62000aed818562000a7b565b935062000afa8362000a8c565b8060005b8381101562000b3157815162000b15888262000aad565b975062000b228362000ac7565b92505060018101905062000afe565b5085935050505092915050565b6000602082019050818103600083015262000b5a818462000ad4565b905092915050565b7f4f6e6c79206f776e657220697320616c6c6f7765642100000000000000000000600082015250565b600062000b9a60168362000646565b915062000ba78262000b62565b602082019050919050565b6000602082019050818103600083015262000bcd8162000b8b565b9050919050565b7f436865636b2074686520696e7075747300000000000000000000000000000000600082015250565b600062000c0c60108362000646565b915062000c198262000bd4565b602082019050919050565b6000602082019050818103600083015262000c3f8162000bfd565b9050919050565b7f4e6f7420656e6f7567682062616c616e636520696e20706172656e7420636f6e60008201527f7472616374000000000000000000000000000000000000000000000000000000602082015250565b600062000ca460258362000646565b915062000cb18262000c46565b604082019050919050565b6000602082019050818103600083015262000cd78162000c95565b9050919050565b62000ce98162000868565b82525050565b6000819050919050565b600062000d1a62000d1462000d0e84620008a3565b62000cef565b620008a3565b9050919050565b600062000d2e8262000cf9565b9050919050565b600062000d428262000d21565b9050919050565b62000d548162000d35565b82525050565b600060a082019050818103600083015262000d7681886200069e565b9050818103602083015262000d8c81876200069e565b905062000d9d604083018662000cde565b62000dac606083018562000cde565b62000dbb608083018462000d49565b969550505050505056fe60806040523480156200001157600080fd5b50604051620016b3380380620016b3833981810160405281019062000037919062000433565b84600090805190602001906200004f92919062000146565b5083600190805190602001906200006892919062000146565b508260028190555082600a6200007f91906200067c565b826200008c9190620006cd565b60038190555080600460006101000a81548173ffffffffffffffffffffffffffffffffffffffff021916908373ffffffffffffffffffffffffffffffffffffffff16021790555060035460056000600460009054906101000a900473ffffffffffffffffffffffffffffffffffffffff1673ffffffffffffffffffffffffffffffffffffffff1673ffffffffffffffffffffffffffffffffffffffff16815260200190815260200160002081905550505050505062000792565b82805462000154906200075d565b90600052602060002090601f016020900481019282620001785760008555620001c4565b82601f106200019357805160ff1916838001178555620001c4565b82800160010185558215620001c4579182015b82811115620001c3578251825591602001919060010190620001a6565b5b509050620001d39190620001d7565b5090565b5b80821115620001f2576000816000905550600101620001d8565b5090565b6000604051905090565b600080fd5b600080fd5b600080fd5b600080fd5b6000601f19601f8301169050919050565b7f4e487b7100000000000000000000000000000000000000000000000000000000600052604160045260246000fd5b6200025f8262000214565b810181811067ffffffffffffffff8211171562000281576200028062000225565b5b80604052505050565b600062000296620001f6565b9050620002a4828262000254565b919050565b600067ffffffffffffffff821115620002c757620002c662000225565b5b620002d28262000214565b9050602081019050919050565b60005b83811015620002ff578082015181840152602081019050620002e2565b838111156200030f576000848401525b50505050565b60006200032c6200032684620002a9565b6200028a565b9050828152602081018484840111156200034b576200034a6200020f565b5b62000358848285620002df565b509392505050565b600082601f8301126200037857620003776200020a565b5b81516200038a84826020860162000315565b91505092915050565b6000819050919050565b620003a88162000393565b8114620003b457600080fd5b50565b600081519050620003c8816200039d565b92915050565b600073ffffffffffffffffffffffffffffffffffffffff82169050919050565b6000620003fb82620003ce565b9050919050565b6200040d81620003ee565b81146200041957600080fd5b50565b6000815190506200042d8162000402565b92915050565b600080600080600060a0868803121562000452576200045162000200565b5b600086015167ffffffffffffffff81111562000473576200047262000205565b5b620004818882890162000360565b955050602086015167ffffffffffffffff811115620004a557620004a462000205565b5b620004b38882890162000360565b9450506040620004c688828901620003b7565b9350506060620004d988828901620003b7565b9250506080620004ec888289016200041c565b9150509295509295909350565b7f4e487b7100000000000000000000000000000000000000000000000000000000600052601160045260246000fd5b6000600282049050919050565b6000808291508390505b600185111562000587578086048111156200055f576200055e620004f9565b5b60018516156200056f5780820291505b80810290506200057f8562000528565b94506200053f565b94509492505050565b600082620005a2576001905062000675565b81620005b2576000905062000675565b8160018114620005cb5760028114620005d6576200060c565b600191505062000675565b60ff841115620005eb57620005ea620004f9565b5b8360020a915084821115620006055762000604620004f9565b5b5062000675565b5060208310610133831016604e8410600b8410161715620006465782820a90508381111562000640576200063f620004f9565b5b62000675565b62000655848484600162000535565b925090508184048111156200066f576200066e620004f9565b5b81810290505b9392505050565b6000620006898262000393565b9150620006968362000393565b9250620006c57fffffffffffffffffffffffffffffffffffffffffffffffffffffffffffffffff848462000590565b905092915050565b6000620006da8262000393565b9150620006e78362000393565b9250817fffffffffffffffffffffffffffffffffffffffffffffffffffffffffffffffff0483118215151615620007235762000722620004f9565b5b828202905092915050565b7f4e487b7100000000000000000000000000000000000000000000000000000000600052602260045260246000fd5b600060028204905060018216806200077657607f821691505b6020821081036200078c576200078b6200072e565b5b50919050565b610f1180620007a26000396000f3fe608060405234801561001057600080fd5b50600436106100d1576000357c010000000000000000000000000000000000000000000000000000000090048063313ce5671161008e578063313ce567146101c05780634d853ee5146101de57806370a08231146101fc57806395d89b411461022c578063a9059cbb1461024a578063dd62ed3e1461027a576100d1565b8063047fc9aa146100d657806306fdde03146100f4578063095ea7b31461011257806318160ddd1461014257806323b872dd1461016057806327e235e314610190575b600080fd5b6100de6102aa565b6040516100eb91906109b9565b60405180910390f35b6100fc6102b0565b6040516101099190610a6d565b60405180910390f35b61012c60048036038101906101279190610b1e565b61033e565b6040516101399190610b79565b60405180910390f35b61014a6104f5565b60405161015791906109b9565b60405180910390f35b61017a60048036038101906101759190610b94565b6104ff565b6040516101879190610b79565b60405180910390f35b6101aa60048036038101906101a59190610be7565b61069f565b6040516101b791906109b9565b60405180910390f35b6101c86106b7565b6040516101d591906109b9565b60405180910390f35b6101e66106bd565b6040516101f39190610c23565b60405180910390f35b61021660048036038101906102119190610be7565b6106e3565b60405161022391906109b9565b60405180910390f35b61023461072c565b6040516102419190610a6d565b60405180910390f35b610264600480360381019061025f9190610b1e565b6107ba565b6040516102719190610b79565b60405180910390f35b610294600480360381019061028f9190610c3e565b610919565b6040516102a191906109b9565b60405180910390f35b60035481565b600080546102bd90610cad565b80601f01602080910402602001604051908101604052809291908181526020018280546102e990610cad565b80156103365780601f1061030b57610100808354040283529160200191610336565b820191906000526020600020905b81548152906001019060200180831161031957829003601f168201915b505050505081565b600081600560003373ffffffffffffffffffffffffffffffffffffffff1673ffffffffffffffffffffffffffffffffffffffff1681526020019081526020016000205410156103c2576040517f08c379a00000000000000000000000000000000000000000000000000000000081526004016103b990610d2a565b60405180910390fd5b60008211610405576040517f08c379a00000000000000000000000000000000000000000000000000000000081526004016103fc90610d96565b60405180910390fd5b81600660003373ffffffffffffffffffffffffffffffffffffffff1673ffffffffffffffffffffffffffffffffffffffff16815260200190815260200160002060008573ffffffffffffffffffffffffffffffffffffffff1673ffffffffffffffffffffffffffffffffffffffff168152602001908152602001600020819055508273ffffffffffffffffffffffffffffffffffffffff163373ffffffffffffffffffffffffffffffffffffffff167f8c5be1e5ebec7d5bd14f71427d1e84f3dd0314c0f7b2291e5b200ac8c7c3b925846040516104e391906109b9565b60405180910390a36001905092915050565b6000600354905090565b600081600560008673ffffffffffffffffffffffffffffffffffffffff1673ffffffffffffffffffffffffffffffffffffffff168152602001908152602001600020541015610583576040517f08c379a000000000000000000000000000000000000000000000000000000000815260040161057a90610d2a565b60405180910390fd5b81600560008673ffffffffffffffffffffffffffffffffffffffff1673ffffffffffffffffffffffffffffffffffffffff16815260200190815260200160002060008282546105d29190610de5565b9250508190555081600560008573ffffffffffffffffffffffffffffffffffffffff1673ffffffffffffffffffffffffffffffffffffffff16815260200190815260200160002060008282546106289190610e19565b925050819055508273ffffffffffffffffffffffffffffffffffffffff168473ffffffffffffffffffffffffffffffffffffffff167fddf252ad1be2c89b69c2b068fc378daa952ba7f163c4a11628f55a4df523b3ef8460405161068c91906109b9565b60405180910390a3600190509392505050565b60056020528060005260406000206000915090505481565b60025481565b600460009054906101000a900473ffffffffffffffffffffffffffffffffffffffff1681565b6000600560008373ffffffffffffffffffffffffffffffffffffffff1673ffffffffffffffffffffffffffffffffffffffff168152602001908152602001600020549050919050565b6001805461073990610cad565b80601f016020809104026020016040519081016040528092919081815260200182805461076590610cad565b80156107b25780601f10610787576101008083540402835291602001916107b2565b820191906000526020600020905b81548152906001019060200180831161079557829003601f168201915b505050505081565b60008082116107fe576040517f08c379a00000000000000000000000000000000000000000000000000000000081526004016107f590610ebb565b60405180910390fd5b81600560008573ffffffffffffffffffffffffffffffffffffffff1673ffffffffffffffffffffffffffffffffffffffff168152602001908152602001600020600082825461084d9190610e19565b9250508190555081600560003373ffffffffffffffffffffffffffffffffffffffff1673ffffffffffffffffffffffffffffffffffffffff16815260200190815260200160002060008282546108a39190610de5565b925050819055508273ffffffffffffffffffffffffffffffffffffffff163373ffffffffffffffffffffffffffffffffffffffff167fddf252ad1be2c89b69c2b068fc378daa952ba7f163c4a11628f55a4df523b3ef8460405161090791906109b9565b60405180910390a36001905092915050565b6000600660008473ffffffffffffffffffffffffffffffffffffffff1673ffffffffffffffffffffffffffffffffffffffff16815260200190815260200160002060008373ffffffffffffffffffffffffffffffffffffffff1673ffffffffffffffffffffffffffffffffffffffff16815260200190815260200160002054905092915050565b6000819050919050565b6109b3816109a0565b82525050565b60006020820190506109ce60008301846109aa565b92915050565b600081519050919050565b600082825260208201905092915050565b60005b83811015610a0e5780820151818401526020810190506109f3565b83811115610a1d576000848401525b50505050565b6000601f19601f8301169050919050565b6000610a3f826109d4565b610a4981856109df565b9350610a598185602086016109f0565b610a6281610a23565b840191505092915050565b60006020820190508181036000830152610a878184610a34565b905092915050565b600080fd5b600073ffffffffffffffffffffffffffffffffffffffff82169050919050565b6000610abf82610a94565b9050919050565b610acf81610ab4565b8114610ada57600080fd5b50565b600081359050610aec81610ac6565b92915050565b610afb816109a0565b8114610b0657600080fd5b50565b600081359050610b1881610af2565b92915050565b60008060408385031215610b3557610b34610a8f565b5b6000610b4385828601610add565b9250506020610b5485828601610b09565b9150509250929050565b60008115159050919050565b610b7381610b5e565b82525050565b6000602082019050610b8e6000830184610b6a565b92915050565b600080600060608486031215610bad57610bac610a8f565b5b6000610bbb86828701610add565b9350506020610bcc86828701610add565b9250506040610bdd86828701610b09565b9150509250925092565b600060208284031215610bfd57610bfc610a8f565b5b6000610c0b84828501610add565b91505092915050565b610c1d81610ab4565b82525050565b6000602082019050610c386000830184610c14565b92915050565b60008060408385031215610c5557610c54610a8f565b5b6000610c6385828601610add565b9250506020610c7485828601610add565b9150509250929050565b7f4e487b7100000000000000000000000000000000000000000000000000000000600052602260045260246000fd5b60006002820490506001821680610cc557607f821691505b602082108103610cd857610cd7610c7e565b5b50919050565b7f4e6f7420656e6f7567682062616c616e63650000000000000000000000000000600082015250565b6000610d146012836109df565b9150610d1f82610cde565b602082019050919050565b60006020820190508181036000830152610d4381610d07565b9050919050565b7f546f6b656e73203c3d2030000000000000000000000000000000000000000000600082015250565b6000610d80600b836109df565b9150610d8b82610d4a565b602082019050919050565b60006020820190508181036000830152610daf81610d73565b9050919050565b7f4e487b7100000000000000000000000000000000000000000000000000000000600052601160045260246000fd5b6000610df0826109a0565b9150610dfb836109a0565b925082821015610e0e57610e0d610db6565b5b828203905092915050565b6000610e24826109a0565b9150610e2f836109a0565b9250827fffffffffffffffffffffffffffffffffffffffffffffffffffffffffffffffff03821115610e6457610e63610db6565b5b828201905092915050565b7f746f6b656e203c3d203020000000000000000000000000000000000000000000600082015250565b6000610ea5600b836109df565b9150610eb082610e6f565b602082019050919050565b60006020820190508181036000830152610ed481610e98565b905091905056fea264697066735822122013954df0f57c7b3384af05be58c5d9d17e003888464ffed2b0a836175804fe8a64736f6c634300080d0033a2646970667358221220e2566559c998cb5e3739349cec0273e6d30e122462aa3f41e71930eec5c6b42164736f6c634300080d0033",
  "immutableReferences": {},
  "source": "//SPDX-License-Identifier: MIT\r\n\r\npragma solidity 0.8.13;\r\n\r\nimport \"./FANTOKEN.sol\";\r\n\r\ncontract TokenGenerator {\r\n    \r\n    address[] public deployedTokensAddresses;\r\n    address payable owner;\r\n    \r\n    constructor() {\r\n        owner = payable(msg.sender);\r\n    }\r\n    \r\n    function generateToken(string memory _name, string memory _symbol, uint256 _decimals, uint256 _supply, address payable tokenOwner ) public returns(address payable) {\r\n        require(keccak256(bytes(_name)) != keccak256(bytes(\"\")) && keccak256(bytes(_symbol))!=keccak256(bytes(\"\")) && _decimals>=0 && _supply > 0,\"Check the inputs\");\r\n        require(address(this).balance > 0.01 ether,\"Not enough balance in parent contract\");\r\n        address newToken = address (new FANTOKEN(_name,_symbol,_decimals, _supply, tokenOwner));\r\n        deployedTokensAddresses.push(newToken);\r\n        tokenOwner.transfer(0.01 ether);\r\n        return payable (newToken);\r\n    }\r\n\r\n    function getAllAddresses() public view returns (address[] memory){\r\n        return deployedTokensAddresses;\r\n    }\r\n\r\n    function addMoney() public payable returns(string memory) {\r\n        require(msg.sender == owner, \"Only owner is allowed!\");\r\n        return 'added';\r\n    }\r\n    function withdraw() public {\r\n        require(msg.sender == owner, \"Only owner is allowed!\");\r\n        owner.transfer(address(this).balance);\r\n    }\r\n}",
  "sourcePath": "B:\\Block Chain Development\\dApp 2\\dApp2-Final-Project\\contracts\\TokenGenerator.sol",
  "compiler": {
    "name": "solc",
    "version": "0.8.13+commit.abaa5c0e.Emscripten.clang"
  },
  "schemaVersion": "3.4.6",
  "updatedAt": "2022-04-08T01:59:51.923Z",
  "networkType": "ethereum",
  "devdoc": {
    "kind": "dev",
    "methods": {},
    "version": 1
  },
  "userdoc": {
    "kind": "user",
    "methods": {},
    "version": 1
  }
}